{
  "_format": "hh-sol-artifact-1",
  "contractName": "VINYL",
  "sourceName": "contracts/VINYL.sol",
  "abi": [
    {
      "anonymous": false,
      "inputs": [
        {
          "indexed": true,
          "internalType": "address",
          "name": "account",
          "type": "address"
        },
        {
          "indexed": true,
          "internalType": "address",
          "name": "operator",
          "type": "address"
        },
        {
          "indexed": false,
          "internalType": "bool",
          "name": "approved",
          "type": "bool"
        }
      ],
      "name": "ApprovalForAll",
      "type": "event"
    },
    {
      "anonymous": false,
      "inputs": [
        {
          "indexed": true,
          "internalType": "address",
          "name": "previousOwner",
          "type": "address"
        },
        {
          "indexed": true,
          "internalType": "address",
          "name": "newOwner",
          "type": "address"
        }
      ],
      "name": "OwnershipTransferred",
      "type": "event"
    },
    {
      "anonymous": false,
      "inputs": [
        {
          "indexed": true,
          "internalType": "address",
          "name": "operator",
          "type": "address"
        },
        {
          "indexed": true,
          "internalType": "address",
          "name": "from",
          "type": "address"
        },
        {
          "indexed": true,
          "internalType": "address",
          "name": "to",
          "type": "address"
        },
        {
          "indexed": false,
          "internalType": "uint256[]",
          "name": "ids",
          "type": "uint256[]"
        },
        {
          "indexed": false,
          "internalType": "uint256[]",
          "name": "values",
          "type": "uint256[]"
        }
      ],
      "name": "TransferBatch",
      "type": "event"
    },
    {
      "anonymous": false,
      "inputs": [
        {
          "indexed": true,
          "internalType": "address",
          "name": "operator",
          "type": "address"
        },
        {
          "indexed": true,
          "internalType": "address",
          "name": "from",
          "type": "address"
        },
        {
          "indexed": true,
          "internalType": "address",
          "name": "to",
          "type": "address"
        },
        {
          "indexed": false,
          "internalType": "uint256",
          "name": "id",
          "type": "uint256"
        },
        {
          "indexed": false,
          "internalType": "uint256",
          "name": "value",
          "type": "uint256"
        }
      ],
      "name": "TransferSingle",
      "type": "event"
    },
    {
      "anonymous": false,
      "inputs": [
        {
          "indexed": false,
          "internalType": "string",
          "name": "value",
          "type": "string"
        },
        {
          "indexed": true,
          "internalType": "uint256",
          "name": "id",
          "type": "uint256"
        }
      ],
      "name": "URI",
      "type": "event"
    },
    {
      "inputs": [],
      "name": "GOLD_VINYL",
      "outputs": [
        {
          "internalType": "uint256",
          "name": "",
          "type": "uint256"
        }
      ],
      "stateMutability": "view",
      "type": "function"
    },
    {
      "inputs": [],
      "name": "MINT_VINYL",
      "outputs": [
        {
          "internalType": "uint256",
          "name": "",
          "type": "uint256"
        }
      ],
      "stateMutability": "view",
      "type": "function"
    },
    {
      "inputs": [],
      "name": "ONYX_VINYL",
      "outputs": [
        {
          "internalType": "uint256",
          "name": "",
          "type": "uint256"
        }
      ],
      "stateMutability": "view",
      "type": "function"
    },
    {
      "inputs": [
        {
          "internalType": "address",
          "name": "_owner",
          "type": "address"
        },
        {
          "internalType": "uint256",
          "name": "_id",
          "type": "uint256"
        }
      ],
      "name": "balanceOf",
      "outputs": [
        {
          "internalType": "uint256",
          "name": "",
          "type": "uint256"
        }
      ],
      "stateMutability": "view",
      "type": "function"
    },
    {
      "inputs": [
        {
          "internalType": "address[]",
          "name": "_owners",
          "type": "address[]"
        },
        {
          "internalType": "uint256[]",
          "name": "_ids",
          "type": "uint256[]"
        }
      ],
      "name": "balanceOfBatch",
      "outputs": [
        {
          "internalType": "uint256[]",
          "name": "",
          "type": "uint256[]"
        }
      ],
      "stateMutability": "view",
      "type": "function"
    },
    {
      "inputs": [
        {
          "internalType": "uint256",
          "name": "_id",
          "type": "uint256"
        },
        {
          "internalType": "uint256",
          "name": "amount",
          "type": "uint256"
        }
      ],
      "name": "burn",
      "outputs": [],
      "stateMutability": "nonpayable",
      "type": "function"
    },
    {
      "inputs": [
        {
          "internalType": "uint256",
          "name": "index",
          "type": "uint256"
        }
      ],
      "name": "checkDoubleMint",
      "outputs": [
        {
          "internalType": "bool",
          "name": "",
          "type": "bool"
        }
      ],
      "stateMutability": "view",
      "type": "function"
    },
    {
      "inputs": [
        {
          "internalType": "uint256",
          "name": "_id",
          "type": "uint256"
        }
      ],
      "name": "getIDBinIndex",
      "outputs": [
        {
          "internalType": "uint256",
          "name": "bin",
          "type": "uint256"
        },
        {
          "internalType": "uint256",
          "name": "index",
          "type": "uint256"
        }
      ],
      "stateMutability": "pure",
      "type": "function"
    },
    {
      "inputs": [
        {
          "internalType": "uint256",
          "name": "_binValues",
          "type": "uint256"
        },
        {
          "internalType": "uint256",
          "name": "_index",
          "type": "uint256"
        }
      ],
      "name": "getValueInBin",
      "outputs": [
        {
          "internalType": "uint256",
          "name": "",
          "type": "uint256"
        }
      ],
      "stateMutability": "pure",
      "type": "function"
    },
    {
      "inputs": [],
      "name": "isActive",
      "outputs": [
        {
          "internalType": "bool",
          "name": "",
          "type": "bool"
        }
      ],
      "stateMutability": "view",
      "type": "function"
    },
    {
      "inputs": [
        {
          "internalType": "address",
          "name": "_owner",
          "type": "address"
        },
        {
          "internalType": "address",
          "name": "_operator",
          "type": "address"
        }
      ],
      "name": "isApprovedForAll",
      "outputs": [
        {
          "internalType": "bool",
          "name": "isOperator",
          "type": "bool"
        }
      ],
      "stateMutability": "view",
      "type": "function"
    },
    {
      "inputs": [],
      "name": "merkleRoot",
      "outputs": [
        {
          "internalType": "bytes32",
          "name": "",
          "type": "bytes32"
        }
      ],
      "stateMutability": "view",
      "type": "function"
    },
    {
      "inputs": [
        {
          "internalType": "uint256",
          "name": "index",
          "type": "uint256"
        },
        {
          "internalType": "uint256",
          "name": "mint_type",
          "type": "uint256"
        },
        {
          "internalType": "bytes32[]",
          "name": "_proof",
          "type": "bytes32[]"
        }
      ],
      "name": "mintNFT",
      "outputs": [],
      "stateMutability": "nonpayable",
      "type": "function"
    },
    {
      "inputs": [],
      "name": "owner",
      "outputs": [
        {
          "internalType": "address",
          "name": "",
          "type": "address"
        }
      ],
      "stateMutability": "view",
      "type": "function"
    },
    {
      "inputs": [],
      "name": "renounceOwnership",
      "outputs": [],
      "stateMutability": "nonpayable",
      "type": "function"
    },
    {
      "inputs": [
        {
          "internalType": "address",
          "name": "_from",
          "type": "address"
        },
        {
          "internalType": "address",
          "name": "_to",
          "type": "address"
        },
        {
          "internalType": "uint256[]",
          "name": "_ids",
          "type": "uint256[]"
        },
        {
          "internalType": "uint256[]",
          "name": "_amounts",
          "type": "uint256[]"
        },
        {
          "internalType": "bytes",
          "name": "_data",
          "type": "bytes"
        }
      ],
      "name": "safeBatchTransferFrom",
      "outputs": [],
      "stateMutability": "nonpayable",
      "type": "function"
    },
    {
      "inputs": [
        {
          "internalType": "address",
          "name": "_from",
          "type": "address"
        },
        {
          "internalType": "address",
          "name": "_to",
          "type": "address"
        },
        {
          "internalType": "uint256",
          "name": "_id",
          "type": "uint256"
        },
        {
          "internalType": "uint256",
          "name": "_amount",
          "type": "uint256"
        },
        {
          "internalType": "bytes",
          "name": "_data",
          "type": "bytes"
        }
      ],
      "name": "safeTransferFrom",
      "outputs": [],
      "stateMutability": "nonpayable",
      "type": "function"
    },
    {
      "inputs": [
        {
          "internalType": "address",
          "name": "_operator",
          "type": "address"
        },
        {
          "internalType": "bool",
          "name": "_approved",
          "type": "bool"
        }
      ],
      "name": "setApprovalForAll",
      "outputs": [],
      "stateMutability": "nonpayable",
      "type": "function"
    },
    {
      "inputs": [
        {
          "internalType": "bytes32",
          "name": "merkleRootHash",
          "type": "bytes32"
        }
      ],
      "name": "setMerkleRoot",
      "outputs": [],
      "stateMutability": "nonpayable",
      "type": "function"
    },
    {
      "inputs": [
        {
          "internalType": "string",
          "name": "_URI",
          "type": "string"
        }
      ],
      "name": "setURI",
      "outputs": [],
      "stateMutability": "nonpayable",
      "type": "function"
    },
    {
      "inputs": [
        {
          "internalType": "bytes4",
          "name": "_interfaceID",
          "type": "bytes4"
        }
      ],
      "name": "supportsInterface",
      "outputs": [
        {
          "internalType": "bool",
          "name": "",
          "type": "bool"
        }
      ],
      "stateMutability": "pure",
      "type": "function"
    },
    {
      "inputs": [],
      "name": "toggleActive",
      "outputs": [],
      "stateMutability": "nonpayable",
      "type": "function"
    },
    {
      "inputs": [
        {
          "internalType": "address",
          "name": "newOwner",
          "type": "address"
        }
      ],
      "name": "transferOwnership",
      "outputs": [],
      "stateMutability": "nonpayable",
      "type": "function"
    },
    {
      "inputs": [
        {
          "internalType": "uint256",
          "name": "_tokenId",
          "type": "uint256"
        }
      ],
      "name": "uri",
      "outputs": [
        {
          "internalType": "string",
          "name": "",
          "type": "string"
        }
      ],
      "stateMutability": "view",
      "type": "function"
    },
    {
      "inputs": [
        {
          "internalType": "bytes32",
          "name": "root",
          "type": "bytes32"
        },
        {
          "internalType": "bytes32[]",
          "name": "proof",
          "type": "bytes32[]"
        },
        {
          "internalType": "bytes32",
          "name": "leaf",
          "type": "bytes32"
        }
      ],
      "name": "verify",
      "outputs": [
        {
          "internalType": "bool",
          "name": "",
          "type": "bool"
        }
      ],
      "stateMutability": "pure",
      "type": "function"
    }
  ],
  "bytecode": "0x60806040526000600560006101000a81548160ff0219169083151502179055507fb6988e0a864d0384016113cbbd82753e7094a8476d74bf7e13a9e28e80a1542460001b6006553480156200005357600080fd5b5062000074620000686200008260201b60201c565b6200008a60201b60201c565b600160038190555062000150565b600033905090565b6000600260009054906101000a900473ffffffffffffffffffffffffffffffffffffffff16905081600260006101000a81548173ffffffffffffffffffffffffffffffffffffffff021916908373ffffffffffffffffffffffffffffffffffffffff1602179055508173ffffffffffffffffffffffffffffffffffffffff168173ffffffffffffffffffffffffffffffffffffffff167f8be0079c531659141344cd1fd0a4f28419497f9722a3daafe3b4186f6b6457e060405160405180910390a35050565b61495a80620001606000396000f3fe608060405234801561001057600080fd5b50600436106101725760003560e01c80637cb64759116100de578063be3374f411610097578063e985e9c511610071578063e985e9c514610438578063eaec5f8114610468578063f242432a14610498578063f2fde38b146104b457610172565b8063be3374f4146103cb578063c43b9a2e146103e9578063db90e83c1461040757610172565b80637cb647591461030b578063806101be146103275780638da5cb5b14610345578063a22cb46514610363578063b390c0ab1461037f578063b7c4fbc51461039b57610172565b806329c68dc11161013057806329c68dc1146102715780632eb2c2d61461027b5780632eb4a7ab146102975780634e1273f4146102b557806365aad4fd146102e5578063715018a61461030157610172565b8062fdd58e1461017757806301ffc9a7146101a757806302fe5305146101d75780630a02831c146101f35780630e89341c1461022357806322f3e2d414610253575b600080fd5b610191600480360381019061018c9190612efb565b6104d0565b60405161019e9190613b38565b60405180910390f35b6101c160048036038101906101bc919061304f565b610549565b6040516101ce9190613880565b60405180910390f35b6101f160048036038101906101ec91906130a9565b6105cb565b005b61020d60048036038101906102089190612fe0565b610661565b60405161021a9190613880565b60405180910390f35b61023d600480360381019061023891906130f2565b610717565b60405161024a91906138b6565b60405180910390f35b61025b61074b565b6040516102689190613880565b60405180910390f35b61027961075e565b005b61029560048036038101906102909190612d55565b610806565b005b61029f610916565b6040516102ac919061389b565b60405180910390f35b6102cf60048036038101906102ca9190612f3b565b61091c565b6040516102dc9190613827565b60405180910390f35b6102ff60048036038101906102fa919061315f565b610bf3565b005b610309610d7b565b005b61032560048036038101906103209190612fb3565b610e03565b005b61032f610e89565b60405161033c9190613b38565b60405180910390f35b61034d610e8e565b60405161035a919061374a565b60405180910390f35b61037d60048036038101906103789190612ebb565b610eb8565b005b6103996004803603810190610394919061311f565b610fb5565b005b6103b560048036038101906103b091906130f2565b61101a565b6040516103c29190613880565b60405180910390f35b6103d3611077565b6040516103e09190613b38565b60405180910390f35b6103f161107c565b6040516103fe9190613b38565b60405180910390f35b610421600480360381019061041c91906130f2565b611081565b60405161042f929190613b53565b60405180910390f35b610452600480360381019061044d9190612d15565b6110c1565b60405161045f9190613880565b60405180910390f35b610482600480360381019061047d919061311f565b611155565b60405161048f9190613b38565b60405180910390f35b6104b260048036038101906104ad9190612e24565b61118d565b005b6104ce60048036038101906104c99190612ce8565b61129d565b005b60008060006104de84611081565b809250819350505061053f6000808773ffffffffffffffffffffffffffffffffffffffff1673ffffffffffffffffffffffffffffffffffffffff16815260200190815260200160002060008481526020019081526020016000205482611155565b9250505092915050565b60007fd9b67a26000000000000000000000000000000000000000000000000000000007bffffffffffffffffffffffffffffffffffffffffffffffffffffffff1916827bffffffffffffffffffffffffffffffffffffffffffffffffffffffff191614156105ba57600190506105c6565b6105c382611395565b90505b919050565b6105d36113e6565b73ffffffffffffffffffffffffffffffffffffffff166105f1610e8e565b73ffffffffffffffffffffffffffffffffffffffff1614610647576040517f08c379a000000000000000000000000000000000000000000000000000000000815260040161063e90613a18565b60405180910390fd5b806004908051906020019061065d92919061290d565b5050565b60008082905060005b84518110156107095760008582815181106106885761068761422f565b5b602002602001015190508083116106c95782816040516020016106ac9291906136ef565b6040516020818303038152906040528051906020012092506106f5565b80836040516020016106dc9291906136ef565b6040516020818303038152906040528051906020012092505b508080610701906140c1565b91505061066a565b508481149150509392505050565b60606004610724836113ee565b60405160200161073592919061371b565b6040516020818303038152906040529050919050565b600560009054906101000a900460ff1681565b6107666113e6565b73ffffffffffffffffffffffffffffffffffffffff16610784610e8e565b73ffffffffffffffffffffffffffffffffffffffff16146107da576040517f08c379a00000000000000000000000000000000000000000000000000000000081526004016107d190613a18565b60405180910390fd5b600560009054906101000a900460ff1615600560006101000a81548160ff021916908315150217905550565b8473ffffffffffffffffffffffffffffffffffffffff163373ffffffffffffffffffffffffffffffffffffffff161480610846575061084585336110c1565b5b610885576040517f08c379a000000000000000000000000000000000000000000000000000000000815260040161087c906139d8565b60405180910390fd5b600073ffffffffffffffffffffffffffffffffffffffff168473ffffffffffffffffffffffffffffffffffffffff1614156108f5576040517f08c379a00000000000000000000000000000000000000000000000000000000081526004016108ec906138f8565b60405180910390fd5b6109018585858561154f565b61090f858585855a86611acd565b5050505050565b60065481565b606060008351905082518114610967576040517f08c379a000000000000000000000000000000000000000000000000000000000815260040161095e906138d8565b60405180910390fd5b60008061098e856000815181106109815761098061422f565b5b6020026020010151611081565b915091506000806000886000815181106109ab576109aa61422f565b5b602002602001015173ffffffffffffffffffffffffffffffffffffffff1673ffffffffffffffffffffffffffffffffffffffff1681526020019081526020016000206000848152602001908152602001600020549050600083905060008567ffffffffffffffff811115610a2257610a2161425e565b5b604051908082528060200260200182016040528015610a505781602001602082028036833780820191505090505b509050610a5d8385611155565b81600081518110610a7157610a7061422f565b5b6020026020010181815250506000600190505b86811015610be357610aaf898281518110610aa257610aa161422f565b5b6020026020010151611081565b80965081975050508286141580610b325750898181518110610ad457610ad361422f565b5b602002602001015173ffffffffffffffffffffffffffffffffffffffff168a600183610b009190613f6a565b81518110610b1157610b1061422f565b5b602002602001015173ffffffffffffffffffffffffffffffffffffffff1614155b15610ba7576000808b8381518110610b4d57610b4c61422f565b5b602002602001015173ffffffffffffffffffffffffffffffffffffffff1673ffffffffffffffffffffffffffffffffffffffff16815260200190815260200160002060008781526020019081526020016000205493508592505b610bb18486611155565b828281518110610bc457610bc361422f565b5b6020026020010181815250508080610bdb906140c1565b915050610a84565b5080965050505050505092915050565b60026003541415610c39576040517f08c379a0000000000000000000000000000000000000000000000000000000008152600401610c3090613b18565b60405180910390fd5b6002600381905550600560009054906101000a900460ff16610c90576040517f08c379a0000000000000000000000000000000000000000000000000000000008152600401610c87906139f8565b60405180910390fd5b60011515610c9d8461101a565b151514610cdf576040517f08c379a0000000000000000000000000000000000000000000000000000000008152600401610cd690613a98565b60405180910390fd5b6000338385604051602001610cf6939291906136b2565b604051602081830303815290604052805190602001209050610d1b6006548383610661565b610d5a576040517f08c379a0000000000000000000000000000000000000000000000000000000008152600401610d51906139b8565b60405180910390fd5b610d6384611c1b565b610d6d3384611c82565b506001600381905550505050565b610d836113e6565b73ffffffffffffffffffffffffffffffffffffffff16610da1610e8e565b73ffffffffffffffffffffffffffffffffffffffff1614610df7576040517f08c379a0000000000000000000000000000000000000000000000000000000008152600401610dee90613a18565b60405180910390fd5b610e016000611f07565b565b610e0b6113e6565b73ffffffffffffffffffffffffffffffffffffffff16610e29610e8e565b73ffffffffffffffffffffffffffffffffffffffff1614610e7f576040517f08c379a0000000000000000000000000000000000000000000000000000000008152600401610e7690613a18565b60405180910390fd5b8060068190555050565b600281565b6000600260009054906101000a900473ffffffffffffffffffffffffffffffffffffffff16905090565b80600160003373ffffffffffffffffffffffffffffffffffffffff1673ffffffffffffffffffffffffffffffffffffffff16815260200190815260200160002060008473ffffffffffffffffffffffffffffffffffffffff1673ffffffffffffffffffffffffffffffffffffffff16815260200190815260200160002060006101000a81548160ff0219169083151502179055508173ffffffffffffffffffffffffffffffffffffffff163373ffffffffffffffffffffffffffffffffffffffff167f17307eab39ab6107e8899845ad3d59bd9653f200f220920489ca2b5937696c3183604051610fa99190613880565b60405180910390a35050565b60026003541415610ffb576040517f08c379a0000000000000000000000000000000000000000000000000000000008152600401610ff290613b18565b60405180910390fd5b600260038190555061100e338383611fcd565b60016003819055505050565b600080600760006101008561102f9190613d6e565b81526020019081526020016000205490506000610100846110509190614142565b6001901b905060008183161461106b57600092505050611072565b6001925050505b919050565b600181565b600081565b60008060206101006110939190613d6e565b8361109e9190613d6e565b915060206101006110af9190613d6e565b836110ba9190614142565b9050915091565b6000600160008473ffffffffffffffffffffffffffffffffffffffff1673ffffffffffffffffffffffffffffffffffffffff16815260200190815260200160002060008373ffffffffffffffffffffffffffffffffffffffff1673ffffffffffffffffffffffffffffffffffffffff16815260200190815260200160002060009054906101000a900460ff16905092915050565b600080600160206001901b61116a9190613f6a565b9050600083602061117b9190613f10565b9050818186901c169250505092915050565b8473ffffffffffffffffffffffffffffffffffffffff163373ffffffffffffffffffffffffffffffffffffffff1614806111cd57506111cc85336110c1565b5b61120c576040517f08c379a000000000000000000000000000000000000000000000000000000000815260040161120390613958565b60405180910390fd5b600073ffffffffffffffffffffffffffffffffffffffff168473ffffffffffffffffffffffffffffffffffffffff16141561127c576040517f08c379a000000000000000000000000000000000000000000000000000000000815260040161127390613a78565b60405180910390fd5b6112888585858561205e565b611296858585855a866120fc565b5050505050565b6112a56113e6565b73ffffffffffffffffffffffffffffffffffffffff166112c3610e8e565b73ffffffffffffffffffffffffffffffffffffffff1614611319576040517f08c379a000000000000000000000000000000000000000000000000000000000815260040161131090613a18565b60405180910390fd5b600073ffffffffffffffffffffffffffffffffffffffff168173ffffffffffffffffffffffffffffffffffffffff161415611389576040517f08c379a000000000000000000000000000000000000000000000000000000000815260040161138090613918565b60405180910390fd5b61139281611f07565b50565b60006301ffc9a760e01b7bffffffffffffffffffffffffffffffffffffffffffffffffffffffff1916827bffffffffffffffffffffffffffffffffffffffffffffffffffffffff1916149050919050565b600033905090565b60606000821415611436576040518060400160405280600181526020017f3000000000000000000000000000000000000000000000000000000000000000815250905061154a565b600082905060005b60008214611468578080611451906140c1565b915050600a826114619190613d6e565b915061143e565b60008167ffffffffffffffff8111156114845761148361425e565b5b6040519080825280601f01601f1916602001820160405280156114b65781602001600182028036833780820191505090505b5090505b60008514611543576001826114cf9190613f6a565b9150600a856114de9190614142565b60306114ea9190613d18565b60f81b818381518110611500576114ff61422f565b5b60200101907effffffffffffffffffffffffffffffffffffffffffffffffffffffffffffff1916908160001a905350600a8561153c9190613d6e565b94506114ba565b8093505050505b919050565b60008251905081518114611598576040517f08c379a000000000000000000000000000000000000000000000000000000000815260040161158f90613978565b60405180910390fd5b8373ffffffffffffffffffffffffffffffffffffffff168573ffffffffffffffffffffffffffffffffffffffff16141580156115d45750600081115b156119a857600080611600856000815181106115f3576115f261422f565b5b6020026020010151611081565b91509150600061167d6000808a73ffffffffffffffffffffffffffffffffffffffff1673ffffffffffffffffffffffffffffffffffffffff168152602001908152602001600020600085815260200190815260200160002054838760008151811061166e5761166d61422f565b5b6020026020010151600161224a565b905060006116f86000808a73ffffffffffffffffffffffffffffffffffffffff1673ffffffffffffffffffffffffffffffffffffffff16815260200190815260200160002060008681526020019081526020016000205484886000815181106116e9576116e861422f565b5b6020026020010151600061224a565b905060008490506000600190505b868110156118f5576117318982815181106117245761172361422f565b5b6020026020010151611081565b809650819750505081861461189057836000808d73ffffffffffffffffffffffffffffffffffffffff1673ffffffffffffffffffffffffffffffffffffffff168152602001908152602001600020600084815260200190815260200160002081905550826000808c73ffffffffffffffffffffffffffffffffffffffff1673ffffffffffffffffffffffffffffffffffffffff1681526020019081526020016000206000848152602001908152602001600020819055506000808c73ffffffffffffffffffffffffffffffffffffffff1673ffffffffffffffffffffffffffffffffffffffff16815260200190815260200160002060008781526020019081526020016000205493506000808b73ffffffffffffffffffffffffffffffffffffffff1673ffffffffffffffffffffffffffffffffffffffff16815260200190815260200160002060008781526020019081526020016000205492508591505b6118b784868a84815181106118a8576118a761422f565b5b6020026020010151600161224a565b93506118e083868a84815181106118d1576118d061422f565b5b6020026020010151600061224a565b925080806118ed906140c1565b915050611706565b50826000808c73ffffffffffffffffffffffffffffffffffffffff1673ffffffffffffffffffffffffffffffffffffffff168152602001908152602001600020600087815260200190815260200160002081905550816000808b73ffffffffffffffffffffffffffffffffffffffff1673ffffffffffffffffffffffffffffffffffffffff1681526020019081526020016000206000878152602001908152602001600020819055505050505050611a48565b60005b81811015611a46578281815181106119c6576119c561422f565b5b60200260200101516119f2878684815181106119e5576119e461422f565b5b60200260200101516104d0565b1015611a33576040517f08c379a0000000000000000000000000000000000000000000000000000000008152600401611a2a90613a38565b60405180910390fd5b8080611a3e906140c1565b9150506119ab565b505b8373ffffffffffffffffffffffffffffffffffffffff168573ffffffffffffffffffffffffffffffffffffffff163373ffffffffffffffffffffffffffffffffffffffff167f4a39dc06d4c0dbc64b70af90fd698a233a518aa5d07e595d983b8c0526c8f7fb8686604051611abe929190613849565b60405180910390a45050505050565b611aec8573ffffffffffffffffffffffffffffffffffffffff1661246a565b15611c135760008573ffffffffffffffffffffffffffffffffffffffff1663bc197c8184338a8989886040518763ffffffff1660e01b8152600401611b35959493929190613765565b602060405180830381600088803b158015611b4f57600080fd5b5087f1158015611b63573d6000803e3d6000fd5b50505050506040513d601f19601f82011682018060405250810190611b88919061307c565b905063bc197c8160e01b7bffffffffffffffffffffffffffffffffffffffffffffffffffffffff1916817bffffffffffffffffffffffffffffffffffffffffffffffffffffffff191614611c11576040517f08c379a0000000000000000000000000000000000000000000000000000000008152600401611c0890613998565b60405180910390fd5b505b505050505050565b60006007600061010084611c2f9190613d6e565b8152602001908152602001600020549050600061010083611c509190614142565b6001901b90508082176007600061010086611c6b9190613d6e565b815260200190815260200160002081905550505050565b6000600267ffffffffffffffff811115611c9f57611c9e61425e565b5b604051908082528060200260200182016040528015611ccd5781602001602082028036833780820191505090505b5090506000600267ffffffffffffffff811115611ced57611cec61425e565b5b604051908082528060200260200182016040528015611d1b5781602001602082028036833780820191505090505b5090506001831415611d4957611d4484600060016040518060200160405280600081525061248d565b611f01565b6002831415611d7457611d6f84600060026040518060200160405280600081525061248d565b611f00565b6003831415611e2557600082600081518110611d9357611d9261422f565b5b602002602001018181525050600182600181518110611db557611db461422f565b5b602002602001018181525050600281600081518110611dd757611dd661422f565b5b602002602001018181525050600181600181518110611df957611df861422f565b5b602002602001018181525050611e208483836040518060200160405280600081525061252e565b611eff565b6004831415611ed657600082600081518110611e4457611e4361422f565b5b602002602001018181525050600182600181518110611e6657611e6561422f565b5b602002602001018181525050600481600081518110611e8857611e8761422f565b5b602002602001018181525050600281600181518110611eaa57611ea961422f565b5b602002602001018181525050611ed18483836040518060200160405280600081525061252e565b611efe565b6005831415611efd57611efc84600260016040518060200160405280600081525061248d565b5b5b5b5b5b50505050565b6000600260009054906101000a900473ffffffffffffffffffffffffffffffffffffffff16905081600260006101000a81548173ffffffffffffffffffffffffffffffffffffffff021916908373ffffffffffffffffffffffffffffffffffffffff1602179055508173ffffffffffffffffffffffffffffffffffffffff168173ffffffffffffffffffffffffffffffffffffffff167f8be0079c531659141344cd1fd0a4f28419497f9722a3daafe3b4186f6b6457e060405160405180910390a35050565b611fda8383836001612843565b600073ffffffffffffffffffffffffffffffffffffffff168373ffffffffffffffffffffffffffffffffffffffff163373ffffffffffffffffffffffffffffffffffffffff167fc3d58168c5ae7397731d063d5bbf3d657854427343f4c083240f7aacaa2d0f628585604051612051929190613b53565b60405180910390a4505050565b61206b8483836001612843565b6120788383836000612843565b8273ffffffffffffffffffffffffffffffffffffffff168473ffffffffffffffffffffffffffffffffffffffff163373ffffffffffffffffffffffffffffffffffffffff167fc3d58168c5ae7397731d063d5bbf3d657854427343f4c083240f7aacaa2d0f6285856040516120ee929190613b53565b60405180910390a450505050565b61211b8573ffffffffffffffffffffffffffffffffffffffff1661246a565b156122425760008573ffffffffffffffffffffffffffffffffffffffff1663f23a6e6184338a8989886040518763ffffffff1660e01b81526004016121649594939291906137cd565b602060405180830381600088803b15801561217e57600080fd5b5087f1158015612192573d6000803e3d6000fd5b50505050506040513d601f19601f820116820180604052508101906121b7919061307c565b905063f23a6e6160e01b7bffffffffffffffffffffffffffffffffffffffffffffffffffffffff1916817bffffffffffffffffffffffffffffffffffffffffffffffffffffffff191614612240576040517f08c379a000000000000000000000000000000000000000000000000000000000815260040161223790613a58565b60405180910390fd5b505b505050505050565b60008084602061225a9190613f10565b90506000600160206001901b6122709190613f6a565b905060006001811115612286576122856141d1565b5b846001811115612299576122986141d1565b5b1415612357578185901b876122ae9190613d18565b9250868310156122f3576040517f08c379a00000000000000000000000000000000000000000000000000000000081526004016122ea90613af8565b60405180910390fd5b602060026123019190613df2565b8582848a901c166123129190613d18565b10612352576040517f08c379a000000000000000000000000000000000000000000000000000000000815260040161234990613af8565b60405180910390fd5b612460565b60018081111561236a576123696141d1565b5b84600181111561237d5761237c6141d1565b5b1415612424578185901b876123929190613f6a565b9250868311156123d7576040517f08c379a00000000000000000000000000000000000000000000000000000000081526004016123ce90613938565b60405180910390fd5b84818389901c16101561241f576040517f08c379a000000000000000000000000000000000000000000000000000000000815260040161241690613938565b60405180910390fd5b61245f565b6040517f08c379a000000000000000000000000000000000000000000000000000000000815260040161245690613ab8565b60405180910390fd5b5b5050949350505050565b6000808273ffffffffffffffffffffffffffffffffffffffff163b119050919050565b61249a8484846000612843565b8373ffffffffffffffffffffffffffffffffffffffff16600073ffffffffffffffffffffffffffffffffffffffff163373ffffffffffffffffffffffffffffffffffffffff167fc3d58168c5ae7397731d063d5bbf3d657854427343f4c083240f7aacaa2d0f628686604051612511929190613b53565b60405180910390a461252860008585855a866120fc565b50505050565b8151835114612572576040517f08c379a000000000000000000000000000000000000000000000000000000000815260040161256990613ad8565b60405180910390fd5b6000835111156127af576000806125a3856000815181106125965761259561422f565b5b6020026020010151611081565b9150915060006126206000808973ffffffffffffffffffffffffffffffffffffffff1673ffffffffffffffffffffffffffffffffffffffff16815260200190815260200160002060008581526020019081526020016000205483876000815181106126115761261061422f565b5b6020026020010151600061224a565b905060008651905060008490506000600190505b828110156127545761265f8982815181106126525761265161422f565b5b6020026020010151611081565b809650819750505081861461271857836000808c73ffffffffffffffffffffffffffffffffffffffff1673ffffffffffffffffffffffffffffffffffffffff1681526020019081526020016000206000848152602001908152602001600020819055506000808b73ffffffffffffffffffffffffffffffffffffffff1673ffffffffffffffffffffffffffffffffffffffff16815260200190815260200160002060008781526020019081526020016000205493508591505b61273f84868a84815181106127305761272f61422f565b5b6020026020010151600061224a565b9350808061274c906140c1565b915050612634565b50826000808b73ffffffffffffffffffffffffffffffffffffffff1673ffffffffffffffffffffffffffffffffffffffff16815260200190815260200160002060008781526020019081526020016000208190555050505050505b8373ffffffffffffffffffffffffffffffffffffffff16600073ffffffffffffffffffffffffffffffffffffffff163373ffffffffffffffffffffffffffffffffffffffff167f4a39dc06d4c0dbc64b70af90fd698a233a518aa5d07e595d983b8c0526c8f7fb8686604051612826929190613849565b60405180910390a461283d60008585855a86611acd565b50505050565b60008061284f85611081565b80925081935050506128b26000808873ffffffffffffffffffffffffffffffffffffffff1673ffffffffffffffffffffffffffffffffffffffff16815260200190815260200160002060008481526020019081526020016000205482868661224a565b6000808873ffffffffffffffffffffffffffffffffffffffff1673ffffffffffffffffffffffffffffffffffffffff168152602001908152602001600020600084815260200190815260200160002081905550505050505050565b8280546129199061405e565b90600052602060002090601f01602090048101928261293b5760008555612982565b82601f1061295457805160ff1916838001178555612982565b82800160010185558215612982579182015b82811115612981578251825591602001919060010190612966565b5b50905061298f9190612993565b5090565b5b808211156129ac576000816000905550600101612994565b5090565b60006129c36129be84613ba1565b613b7c565b905080838252602082019050828560208602820111156129e6576129e5614292565b5b60005b85811015612a1657816129fc8882612b84565b8452602084019350602083019250506001810190506129e9565b5050509392505050565b6000612a33612a2e84613bcd565b613b7c565b90508083825260208201905082856020860282011115612a5657612a55614292565b5b60005b85811015612a865781612a6c8882612c38565b845260208401935060208301925050600181019050612a59565b5050509392505050565b6000612aa3612a9e84613bf9565b613b7c565b90508083825260208201905082856020860282011115612ac657612ac5614292565b5b60005b85811015612af65781612adc8882612cd3565b845260208401935060208301925050600181019050612ac9565b5050509392505050565b6000612b13612b0e84613c25565b613b7c565b905082815260208101848484011115612b2f57612b2e614297565b5b612b3a84828561401c565b509392505050565b6000612b55612b5084613c56565b613b7c565b905082815260208101848484011115612b7157612b70614297565b5b612b7c84828561401c565b509392505050565b600081359050612b93816148b1565b92915050565b600082601f830112612bae57612bad61428d565b5b8135612bbe8482602086016129b0565b91505092915050565b600082601f830112612bdc57612bdb61428d565b5b8135612bec848260208601612a20565b91505092915050565b600082601f830112612c0a57612c0961428d565b5b8135612c1a848260208601612a90565b91505092915050565b600081359050612c32816148c8565b92915050565b600081359050612c47816148df565b92915050565b600081359050612c5c816148f6565b92915050565b600081519050612c71816148f6565b92915050565b600082601f830112612c8c57612c8b61428d565b5b8135612c9c848260208601612b00565b91505092915050565b600082601f830112612cba57612cb961428d565b5b8135612cca848260208601612b42565b91505092915050565b600081359050612ce28161490d565b92915050565b600060208284031215612cfe57612cfd6142a1565b5b6000612d0c84828501612b84565b91505092915050565b60008060408385031215612d2c57612d2b6142a1565b5b6000612d3a85828601612b84565b9250506020612d4b85828601612b84565b9150509250929050565b600080600080600060a08688031215612d7157612d706142a1565b5b6000612d7f88828901612b84565b9550506020612d9088828901612b84565b945050604086013567ffffffffffffffff811115612db157612db061429c565b5b612dbd88828901612bf5565b935050606086013567ffffffffffffffff811115612dde57612ddd61429c565b5b612dea88828901612bf5565b925050608086013567ffffffffffffffff811115612e0b57612e0a61429c565b5b612e1788828901612c77565b9150509295509295909350565b600080600080600060a08688031215612e4057612e3f6142a1565b5b6000612e4e88828901612b84565b9550506020612e5f88828901612b84565b9450506040612e7088828901612cd3565b9350506060612e8188828901612cd3565b925050608086013567ffffffffffffffff811115612ea257612ea161429c565b5b612eae88828901612c77565b9150509295509295909350565b60008060408385031215612ed257612ed16142a1565b5b6000612ee085828601612b84565b9250506020612ef185828601612c23565b9150509250929050565b60008060408385031215612f1257612f116142a1565b5b6000612f2085828601612b84565b9250506020612f3185828601612cd3565b9150509250929050565b60008060408385031215612f5257612f516142a1565b5b600083013567ffffffffffffffff811115612f7057612f6f61429c565b5b612f7c85828601612b99565b925050602083013567ffffffffffffffff811115612f9d57612f9c61429c565b5b612fa985828601612bf5565b9150509250929050565b600060208284031215612fc957612fc86142a1565b5b6000612fd784828501612c38565b91505092915050565b600080600060608486031215612ff957612ff86142a1565b5b600061300786828701612c38565b935050602084013567ffffffffffffffff8111156130285761302761429c565b5b61303486828701612bc7565b925050604061304586828701612c38565b9150509250925092565b600060208284031215613065576130646142a1565b5b600061307384828501612c4d565b91505092915050565b600060208284031215613092576130916142a1565b5b60006130a084828501612c62565b91505092915050565b6000602082840312156130bf576130be6142a1565b5b600082013567ffffffffffffffff8111156130dd576130dc61429c565b5b6130e984828501612ca5565b91505092915050565b600060208284031215613108576131076142a1565b5b600061311684828501612cd3565b91505092915050565b60008060408385031215613136576131356142a1565b5b600061314485828601612cd3565b925050602061315585828601612cd3565b9150509250929050565b600080600060608486031215613178576131776142a1565b5b600061318686828701612cd3565b935050602061319786828701612cd3565b925050604084013567ffffffffffffffff8111156131b8576131b761429c565b5b6131c486828701612bc7565b9150509250925092565b60006131da838361367d565b60208301905092915050565b6131ef81613f9e565b82525050565b61320661320182613f9e565b61410a565b82525050565b600061321782613cac565b6132218185613cda565b935061322c83613c87565b8060005b8381101561325d57815161324488826131ce565b975061324f83613ccd565b925050600181019050613230565b5085935050505092915050565b61327381613fb0565b82525050565b61328281613fbc565b82525050565b61329961329482613fbc565b61411c565b82525050565b60006132aa82613cb7565b6132b48185613ceb565b93506132c481856020860161402b565b6132cd816142a6565b840191505092915050565b60006132e382613cc2565b6132ed8185613cfc565b93506132fd81856020860161402b565b613306816142a6565b840191505092915050565b600061331c82613cc2565b6133268185613d0d565b935061333681856020860161402b565b80840191505092915050565b6000815461334f8161405e565b6133598186613d0d565b945060018216600081146133745760018114613385576133b8565b60ff198316865281860193506133b8565b61338e85613c97565b60005b838110156133b057815481890152600182019150602081019050613391565b838801955050505b50505092915050565b60006133ce603983613cfc565b91506133d9826142d1565b604082019050919050565b60006133f1603d83613cfc565b91506133fc82614320565b604082019050919050565b6000613414602683613cfc565b915061341f8261436f565b604082019050919050565b6000613437603383613cfc565b9150613442826143be565b604082019050919050565b600061345a603783613cfc565b91506134658261440d565b604082019050919050565b600061347d604283613cfc565b91506134888261445c565b606082019050919050565b60006134a0604c83613cfc565b91506134ab826144d1565b606082019050919050565b60006134c3600f83613cfc565b91506134ce82614546565b602082019050919050565b60006134e6603c83613cfc565b91506134f18261456f565b604082019050919050565b6000613509601683613cfc565b9150613514826145be565b602082019050919050565b600061352c600583613d0d565b9150613537826145e7565b600582019050919050565b600061354f602083613cfc565b915061355a82614610565b602082019050919050565b6000613572603683613cfc565b915061357d82614639565b604082019050919050565b6000613595604783613cfc565b91506135a082614688565b606082019050919050565b60006135b8603883613cfc565b91506135c3826146fd565b604082019050919050565b60006135db602083613cfc565b91506135e68261474c565b602082019050919050565b60006135fe604583613cfc565b915061360982614775565b606082019050919050565b6000613621603e83613cfc565b915061362c826147ea565b604082019050919050565b6000613644603283613cfc565b915061364f82614839565b604082019050919050565b6000613667601f83613cfc565b915061367282614888565b602082019050919050565b61368681614012565b82525050565b61369581614012565b82525050565b6136ac6136a782614012565b614138565b82525050565b60006136be82866131f5565b6014820191506136ce828561369b565b6020820191506136de828461369b565b602082019150819050949350505050565b60006136fb8285613288565b60208201915061370b8284613288565b6020820191508190509392505050565b60006137278285613342565b91506137338284613311565b915061373e8261351f565b91508190509392505050565b600060208201905061375f60008301846131e6565b92915050565b600060a08201905061377a60008301886131e6565b61378760208301876131e6565b8181036040830152613799818661320c565b905081810360608301526137ad818561320c565b905081810360808301526137c1818461329f565b90509695505050505050565b600060a0820190506137e260008301886131e6565b6137ef60208301876131e6565b6137fc604083018661368c565b613809606083018561368c565b818103608083015261381b818461329f565b90509695505050505050565b60006020820190508181036000830152613841818461320c565b905092915050565b60006040820190508181036000830152613863818561320c565b90508181036020830152613877818461320c565b90509392505050565b6000602082019050613895600083018461326a565b92915050565b60006020820190506138b06000830184613279565b92915050565b600060208201905081810360008301526138d081846132d8565b905092915050565b600060208201905081810360008301526138f1816133c1565b9050919050565b60006020820190508181036000830152613911816133e4565b9050919050565b6000602082019050818103600083015261393181613407565b9050919050565b600060208201905081810360008301526139518161342a565b9050919050565b600060208201905081810360008301526139718161344d565b9050919050565b6000602082019050818103600083015261399181613470565b9050919050565b600060208201905081810360008301526139b181613493565b9050919050565b600060208201905081810360008301526139d1816134b6565b9050919050565b600060208201905081810360008301526139f1816134d9565b9050919050565b60006020820190508181036000830152613a11816134fc565b9050919050565b60006020820190508181036000830152613a3181613542565b9050919050565b60006020820190508181036000830152613a5181613565565b9050919050565b60006020820190508181036000830152613a7181613588565b9050919050565b60006020820190508181036000830152613a91816135ab565b9050919050565b60006020820190508181036000830152613ab1816135ce565b9050919050565b60006020820190508181036000830152613ad1816135f1565b9050919050565b60006020820190508181036000830152613af181613614565b9050919050565b60006020820190508181036000830152613b1181613637565b9050919050565b60006020820190508181036000830152613b318161365a565b9050919050565b6000602082019050613b4d600083018461368c565b92915050565b6000604082019050613b68600083018561368c565b613b75602083018461368c565b9392505050565b6000613b86613b97565b9050613b928282614090565b919050565b6000604051905090565b600067ffffffffffffffff821115613bbc57613bbb61425e565b5b602082029050602081019050919050565b600067ffffffffffffffff821115613be857613be761425e565b5b602082029050602081019050919050565b600067ffffffffffffffff821115613c1457613c1361425e565b5b602082029050602081019050919050565b600067ffffffffffffffff821115613c4057613c3f61425e565b5b613c49826142a6565b9050602081019050919050565b600067ffffffffffffffff821115613c7157613c7061425e565b5b613c7a826142a6565b9050602081019050919050565b6000819050602082019050919050565b60008190508160005260206000209050919050565b600081519050919050565b600081519050919050565b600081519050919050565b6000602082019050919050565b600082825260208201905092915050565b600082825260208201905092915050565b600082825260208201905092915050565b600081905092915050565b6000613d2382614012565b9150613d2e83614012565b9250827fffffffffffffffffffffffffffffffffffffffffffffffffffffffffffffffff03821115613d6357613d62614173565b5b828201905092915050565b6000613d7982614012565b9150613d8483614012565b925082613d9457613d936141a2565b5b828204905092915050565b6000808291508390505b6001851115613de957808604811115613dc557613dc4614173565b5b6001851615613dd45780820291505b8081029050613de2856142c4565b9450613da9565b94509492505050565b6000613dfd82614012565b9150613e0883614012565b9250613e357fffffffffffffffffffffffffffffffffffffffffffffffffffffffffffffffff8484613e3d565b905092915050565b600082613e4d5760019050613f09565b81613e5b5760009050613f09565b8160018114613e715760028114613e7b57613eaa565b6001915050613f09565b60ff841115613e8d57613e8c614173565b5b8360020a915084821115613ea457613ea3614173565b5b50613f09565b5060208310610133831016604e8410600b8410161715613edf5782820a905083811115613eda57613ed9614173565b5b613f09565b613eec8484846001613d9f565b92509050818404811115613f0357613f02614173565b5b81810290505b9392505050565b6000613f1b82614012565b9150613f2683614012565b9250817fffffffffffffffffffffffffffffffffffffffffffffffffffffffffffffffff0483118215151615613f5f57613f5e614173565b5b828202905092915050565b6000613f7582614012565b9150613f8083614012565b925082821015613f9357613f92614173565b5b828203905092915050565b6000613fa982613ff2565b9050919050565b60008115159050919050565b6000819050919050565b60007fffffffff0000000000000000000000000000000000000000000000000000000082169050919050565b600073ffffffffffffffffffffffffffffffffffffffff82169050919050565b6000819050919050565b82818337600083830152505050565b60005b8381101561404957808201518184015260208101905061402e565b83811115614058576000848401525b50505050565b6000600282049050600182168061407657607f821691505b6020821081141561408a57614089614200565b5b50919050565b614099826142a6565b810181811067ffffffffffffffff821117156140b8576140b761425e565b5b80604052505050565b60006140cc82614012565b91507fffffffffffffffffffffffffffffffffffffffffffffffffffffffffffffffff8214156140ff576140fe614173565b5b600182019050919050565b600061411582614126565b9050919050565b6000819050919050565b6000614131826142b7565b9050919050565b6000819050919050565b600061414d82614012565b915061415883614012565b925082614168576141676141a2565b5b828206905092915050565b7f4e487b7100000000000000000000000000000000000000000000000000000000600052601160045260246000fd5b7f4e487b7100000000000000000000000000000000000000000000000000000000600052601260045260246000fd5b7f4e487b7100000000000000000000000000000000000000000000000000000000600052602160045260246000fd5b7f4e487b7100000000000000000000000000000000000000000000000000000000600052602260045260246000fd5b7f4e487b7100000000000000000000000000000000000000000000000000000000600052603260045260246000fd5b7f4e487b7100000000000000000000000000000000000000000000000000000000600052604160045260246000fd5b600080fd5b600080fd5b600080fd5b600080fd5b600080fd5b6000601f19601f8301169050919050565b60008160601b9050919050565b60008160011c9050919050565b7f455243313135355061636b656442616c616e63652362616c616e63654f66426160008201527f7463683a20494e56414c49445f41525241595f4c454e47544800000000000000602082015250565b7f455243313135355061636b656442616c616e636523736166654261746368547260008201527f616e7366657246726f6d3a20494e56414c49445f524543495049454e54000000602082015250565b7f4f776e61626c653a206e6577206f776e657220697320746865207a65726f206160008201527f6464726573730000000000000000000000000000000000000000000000000000602082015250565b7f455243313135355061636b656442616c616e6365235f7669657755706461746560008201527f42696e56616c75653a20554e444552464c4f5700000000000000000000000000602082015250565b7f455243313135355061636b656442616c616e636523736166655472616e73666560008201527f7246726f6d3a20494e56414c49445f4f50455241544f52000000000000000000602082015250565b7f455243313135355061636b656442616c616e6365235f7361666542617463685460008201527f72616e7366657246726f6d3a20494e56414c49445f4152524159535f4c454e4760208201527f5448000000000000000000000000000000000000000000000000000000000000604082015250565b7f455243313135355061636b656442616c616e6365235f63616c6c6f6e4552433160008201527f313535426174636852656365697665643a20494e56414c49445f4f4e5f52454360208201527f454956455f4d4553534147450000000000000000000000000000000000000000604082015250565b7f4e6f742077686974656c69737465640000000000000000000000000000000000600082015250565b7f455243313135355061636b656442616c616e636523736166654261746368547260008201527f616e7366657246726f6d3a20494e56414c49445f4f50455241544f5200000000602082015250565b7f436f6e7472616374206973206e6f742061637469766500000000000000000000600082015250565b7f2e6a736f6e000000000000000000000000000000000000000000000000000000600082015250565b7f4f776e61626c653a2063616c6c6572206973206e6f7420746865206f776e6572600082015250565b7f455243313135355061636b656442616c616e6365235f7361666542617463685460008201527f72616e7366657246726f6d3a20554e444552464c4f5700000000000000000000602082015250565b7f455243313135355061636b656442616c616e6365235f63616c6c6f6e4552433160008201527f31353552656365697665643a20494e56414c49445f4f4e5f524543454956455f60208201527f4d45535341474500000000000000000000000000000000000000000000000000604082015250565b7f455243313135355061636b656442616c616e636523736166655472616e73666560008201527f7246726f6d3a20494e56414c49445f524543495049454e540000000000000000602082015250565b7f4d65726b6c6544726f703a2064726f7020616c726561647920636c61696d6564600082015250565b7f455243313135355061636b656442616c616e6365235f7669657755706461746560008201527f42696e56616c75653a20494e56414c49445f42494e5f57524954455f4f50455260208201527f4154494f4e000000000000000000000000000000000000000000000000000000604082015250565b7f455243313135354d696e744275726e5061636b656442616c616e6365235f626160008201527f7463684d696e743a20494e56414c49445f4152524159535f4c454e4754480000602082015250565b7f455243313135355061636b656442616c616e6365235f7669657755706461746560008201527f42696e56616c75653a204f564552464c4f570000000000000000000000000000602082015250565b7f5265656e7472616e637947756172643a207265656e7472616e742063616c6c00600082015250565b6148ba81613f9e565b81146148c557600080fd5b50565b6148d181613fb0565b81146148dc57600080fd5b50565b6148e881613fbc565b81146148f357600080fd5b50565b6148ff81613fc6565b811461490a57600080fd5b50565b61491681614012565b811461492157600080fd5b5056fea264697066735822122095b0a1aba7a960850607651b089712a6d3a899be5b8676634ad10dd7c4815b0064736f6c63430008070033",
  "linkReferences": {},
  "deployedLinkReferences": {}
}