{
  "_format": "hh-sol-artifact-1",
  "contractName": "ERC1155PackedBalance",
  "sourceName": "contracts/subContracts/ERC1155PackedBalance.sol",
  "abi": [
    {
      "anonymous": false,
      "inputs": [
        {
          "indexed": true,
          "internalType": "address",
          "name": "account",
          "type": "address"
        },
        {
          "indexed": true,
          "internalType": "address",
          "name": "operator",
          "type": "address"
        },
        {
          "indexed": false,
          "internalType": "bool",
          "name": "approved",
          "type": "bool"
        }
      ],
      "name": "ApprovalForAll",
      "type": "event"
    },
    {
      "anonymous": false,
      "inputs": [
        {
          "indexed": true,
          "internalType": "address",
          "name": "operator",
          "type": "address"
        },
        {
          "indexed": true,
          "internalType": "address",
          "name": "from",
          "type": "address"
        },
        {
          "indexed": true,
          "internalType": "address",
          "name": "to",
          "type": "address"
        },
        {
          "indexed": false,
          "internalType": "uint256[]",
          "name": "ids",
          "type": "uint256[]"
        },
        {
          "indexed": false,
          "internalType": "uint256[]",
          "name": "values",
          "type": "uint256[]"
        }
      ],
      "name": "TransferBatch",
      "type": "event"
    },
    {
      "anonymous": false,
      "inputs": [
        {
          "indexed": true,
          "internalType": "address",
          "name": "operator",
          "type": "address"
        },
        {
          "indexed": true,
          "internalType": "address",
          "name": "from",
          "type": "address"
        },
        {
          "indexed": true,
          "internalType": "address",
          "name": "to",
          "type": "address"
        },
        {
          "indexed": false,
          "internalType": "uint256",
          "name": "id",
          "type": "uint256"
        },
        {
          "indexed": false,
          "internalType": "uint256",
          "name": "value",
          "type": "uint256"
        }
      ],
      "name": "TransferSingle",
      "type": "event"
    },
    {
      "anonymous": false,
      "inputs": [
        {
          "indexed": false,
          "internalType": "string",
          "name": "value",
          "type": "string"
        },
        {
          "indexed": true,
          "internalType": "uint256",
          "name": "id",
          "type": "uint256"
        }
      ],
      "name": "URI",
      "type": "event"
    },
    {
      "inputs": [
        {
          "internalType": "address",
          "name": "_owner",
          "type": "address"
        },
        {
          "internalType": "uint256",
          "name": "_id",
          "type": "uint256"
        }
      ],
      "name": "balanceOf",
      "outputs": [
        {
          "internalType": "uint256",
          "name": "",
          "type": "uint256"
        }
      ],
      "stateMutability": "view",
      "type": "function"
    },
    {
      "inputs": [
        {
          "internalType": "address[]",
          "name": "_owners",
          "type": "address[]"
        },
        {
          "internalType": "uint256[]",
          "name": "_ids",
          "type": "uint256[]"
        }
      ],
      "name": "balanceOfBatch",
      "outputs": [
        {
          "internalType": "uint256[]",
          "name": "",
          "type": "uint256[]"
        }
      ],
      "stateMutability": "view",
      "type": "function"
    },
    {
      "inputs": [
        {
          "internalType": "uint256",
          "name": "_id",
          "type": "uint256"
        }
      ],
      "name": "getIDBinIndex",
      "outputs": [
        {
          "internalType": "uint256",
          "name": "bin",
          "type": "uint256"
        },
        {
          "internalType": "uint256",
          "name": "index",
          "type": "uint256"
        }
      ],
      "stateMutability": "pure",
      "type": "function"
    },
    {
      "inputs": [
        {
          "internalType": "uint256",
          "name": "_binValues",
          "type": "uint256"
        },
        {
          "internalType": "uint256",
          "name": "_index",
          "type": "uint256"
        }
      ],
      "name": "getValueInBin",
      "outputs": [
        {
          "internalType": "uint256",
          "name": "",
          "type": "uint256"
        }
      ],
      "stateMutability": "pure",
      "type": "function"
    },
    {
      "inputs": [
        {
          "internalType": "address",
          "name": "_owner",
          "type": "address"
        },
        {
          "internalType": "address",
          "name": "_operator",
          "type": "address"
        }
      ],
      "name": "isApprovedForAll",
      "outputs": [
        {
          "internalType": "bool",
          "name": "isOperator",
          "type": "bool"
        }
      ],
      "stateMutability": "view",
      "type": "function"
    },
    {
      "inputs": [
        {
          "internalType": "address",
          "name": "_from",
          "type": "address"
        },
        {
          "internalType": "address",
          "name": "_to",
          "type": "address"
        },
        {
          "internalType": "uint256[]",
          "name": "_ids",
          "type": "uint256[]"
        },
        {
          "internalType": "uint256[]",
          "name": "_amounts",
          "type": "uint256[]"
        },
        {
          "internalType": "bytes",
          "name": "_data",
          "type": "bytes"
        }
      ],
      "name": "safeBatchTransferFrom",
      "outputs": [],
      "stateMutability": "nonpayable",
      "type": "function"
    },
    {
      "inputs": [
        {
          "internalType": "address",
          "name": "_from",
          "type": "address"
        },
        {
          "internalType": "address",
          "name": "_to",
          "type": "address"
        },
        {
          "internalType": "uint256",
          "name": "_id",
          "type": "uint256"
        },
        {
          "internalType": "uint256",
          "name": "_amount",
          "type": "uint256"
        },
        {
          "internalType": "bytes",
          "name": "_data",
          "type": "bytes"
        }
      ],
      "name": "safeTransferFrom",
      "outputs": [],
      "stateMutability": "nonpayable",
      "type": "function"
    },
    {
      "inputs": [
        {
          "internalType": "address",
          "name": "_operator",
          "type": "address"
        },
        {
          "internalType": "bool",
          "name": "_approved",
          "type": "bool"
        }
      ],
      "name": "setApprovalForAll",
      "outputs": [],
      "stateMutability": "nonpayable",
      "type": "function"
    },
    {
      "inputs": [
        {
          "internalType": "bytes4",
          "name": "_interfaceID",
          "type": "bytes4"
        }
      ],
      "name": "supportsInterface",
      "outputs": [
        {
          "internalType": "bool",
          "name": "",
          "type": "bool"
        }
      ],
      "stateMutability": "pure",
      "type": "function"
    }
  ],
  "bytecode": "0x608060405234801561001057600080fd5b50612c1b806100206000396000f3fe608060405234801561001057600080fd5b50600436106100925760003560e01c8063a22cb46511610066578063a22cb46514610143578063db90e83c1461015f578063e985e9c514610190578063eaec5f81146101c0578063f242432a146101f057610092565b8062fdd58e1461009757806301ffc9a7146100c75780632eb2c2d6146100f75780634e1273f414610113575b600080fd5b6100b160048036038101906100ac9190611a18565b61020c565b6040516100be91906120dc565b60405180910390f35b6100e160048036038101906100dc9190611ad0565b610285565b6040516100ee9190611f41565b60405180910390f35b610111600480360381019061010c9190611872565b610307565b005b61012d60048036038101906101289190611a58565b610417565b60405161013a9190611ee8565b60405180910390f35b61015d600480360381019061015891906119d8565b6106ee565b005b61017960048036038101906101749190611b2a565b6107eb565b6040516101879291906120f7565b60405180910390f35b6101aa60048036038101906101a59190611832565b61082b565b6040516101b79190611f41565b60405180910390f35b6101da60048036038101906101d59190611b57565b6108bf565b6040516101e791906120dc565b60405180910390f35b61020a60048036038101906102059190611941565b6108f7565b005b600080600061021a846107eb565b809250819350505061027b6000808773ffffffffffffffffffffffffffffffffffffffff1673ffffffffffffffffffffffffffffffffffffffff168152602001908152602001600020600084815260200190815260200160002054826108bf565b9250505092915050565b60007fd9b67a26000000000000000000000000000000000000000000000000000000007bffffffffffffffffffffffffffffffffffffffffffffffffffffffff1916827bffffffffffffffffffffffffffffffffffffffffffffffffffffffff191614156102f65760019050610302565b6102ff82610a07565b90505b919050565b8473ffffffffffffffffffffffffffffffffffffffff163373ffffffffffffffffffffffffffffffffffffffff1614806103475750610346853361082b565b5b610386576040517f08c379a000000000000000000000000000000000000000000000000000000000815260040161037d9061201c565b60405180910390fd5b600073ffffffffffffffffffffffffffffffffffffffff168473ffffffffffffffffffffffffffffffffffffffff1614156103f6576040517f08c379a00000000000000000000000000000000000000000000000000000000081526004016103ed90611f7c565b60405180910390fd5b61040285858585610a58565b610410858585855a86610fd6565b5050505050565b606060008351905082518114610462576040517f08c379a000000000000000000000000000000000000000000000000000000000815260040161045990611f5c565b60405180910390fd5b6000806104898560008151811061047c5761047b6126a8565b5b60200260200101516107eb565b915091506000806000886000815181106104a6576104a56126a8565b5b602002602001015173ffffffffffffffffffffffffffffffffffffffff1673ffffffffffffffffffffffffffffffffffffffff1681526020019081526020016000206000848152602001908152602001600020549050600083905060008567ffffffffffffffff81111561051d5761051c6126d7565b5b60405190808252806020026020018201604052801561054b5781602001602082028036833780820191505090505b50905061055883856108bf565b8160008151811061056c5761056b6126a8565b5b6020026020010181815250506000600190505b868110156106de576105aa89828151811061059d5761059c6126a8565b5b60200260200101516107eb565b8096508197505050828614158061062d57508981815181106105cf576105ce6126a8565b5b602002602001015173ffffffffffffffffffffffffffffffffffffffff168a6001836105fb9190612486565b8151811061060c5761060b6126a8565b5b602002602001015173ffffffffffffffffffffffffffffffffffffffff1614155b156106a2576000808b8381518110610648576106476126a8565b5b602002602001015173ffffffffffffffffffffffffffffffffffffffff1673ffffffffffffffffffffffffffffffffffffffff16815260200190815260200160002060008781526020019081526020016000205493508592505b6106ac84866108bf565b8282815181106106bf576106be6126a8565b5b60200260200101818152505080806106d6906125a1565b91505061057f565b5080965050505050505092915050565b80600160003373ffffffffffffffffffffffffffffffffffffffff1673ffffffffffffffffffffffffffffffffffffffff16815260200190815260200160002060008473ffffffffffffffffffffffffffffffffffffffff1673ffffffffffffffffffffffffffffffffffffffff16815260200190815260200160002060006101000a81548160ff0219169083151502179055508173ffffffffffffffffffffffffffffffffffffffff163373ffffffffffffffffffffffffffffffffffffffff167f17307eab39ab6107e8899845ad3d59bd9653f200f220920489ca2b5937696c31836040516107df9190611f41565b60405180910390a35050565b60008060206101006107fd919061228a565b83610808919061228a565b91506020610100610819919061228a565b8361082491906125ea565b9050915091565b6000600160008473ffffffffffffffffffffffffffffffffffffffff1673ffffffffffffffffffffffffffffffffffffffff16815260200190815260200160002060008373ffffffffffffffffffffffffffffffffffffffff1673ffffffffffffffffffffffffffffffffffffffff16815260200190815260200160002060009054906101000a900460ff16905092915050565b600080600160206001901b6108d49190612486565b905060008360206108e5919061242c565b9050818186901c169250505092915050565b8473ffffffffffffffffffffffffffffffffffffffff163373ffffffffffffffffffffffffffffffffffffffff1614806109375750610936853361082b565b5b610976576040517f08c379a000000000000000000000000000000000000000000000000000000000815260040161096d90611fbc565b60405180910390fd5b600073ffffffffffffffffffffffffffffffffffffffff168473ffffffffffffffffffffffffffffffffffffffff1614156109e6576040517f08c379a00000000000000000000000000000000000000000000000000000000081526004016109dd9061207c565b60405180910390fd5b6109f285858585611124565b610a00858585855a866111c2565b5050505050565b60006301ffc9a760e01b7bffffffffffffffffffffffffffffffffffffffffffffffffffffffff1916827bffffffffffffffffffffffffffffffffffffffffffffffffffffffff1916149050919050565b60008251905081518114610aa1576040517f08c379a0000000000000000000000000000000000000000000000000000000008152600401610a9890611fdc565b60405180910390fd5b8373ffffffffffffffffffffffffffffffffffffffff168573ffffffffffffffffffffffffffffffffffffffff1614158015610add5750600081115b15610eb157600080610b0985600081518110610afc57610afb6126a8565b5b60200260200101516107eb565b915091506000610b866000808a73ffffffffffffffffffffffffffffffffffffffff1673ffffffffffffffffffffffffffffffffffffffff1681526020019081526020016000206000858152602001908152602001600020548387600081518110610b7757610b766126a8565b5b60200260200101516001611310565b90506000610c016000808a73ffffffffffffffffffffffffffffffffffffffff1673ffffffffffffffffffffffffffffffffffffffff1681526020019081526020016000206000868152602001908152602001600020548488600081518110610bf257610bf16126a8565b5b60200260200101516000611310565b905060008490506000600190505b86811015610dfe57610c3a898281518110610c2d57610c2c6126a8565b5b60200260200101516107eb565b8096508197505050818614610d9957836000808d73ffffffffffffffffffffffffffffffffffffffff1673ffffffffffffffffffffffffffffffffffffffff168152602001908152602001600020600084815260200190815260200160002081905550826000808c73ffffffffffffffffffffffffffffffffffffffff1673ffffffffffffffffffffffffffffffffffffffff1681526020019081526020016000206000848152602001908152602001600020819055506000808c73ffffffffffffffffffffffffffffffffffffffff1673ffffffffffffffffffffffffffffffffffffffff16815260200190815260200160002060008781526020019081526020016000205493506000808b73ffffffffffffffffffffffffffffffffffffffff1673ffffffffffffffffffffffffffffffffffffffff16815260200190815260200160002060008781526020019081526020016000205492508591505b610dc084868a8481518110610db157610db06126a8565b5b60200260200101516001611310565b9350610de983868a8481518110610dda57610dd96126a8565b5b60200260200101516000611310565b92508080610df6906125a1565b915050610c0f565b50826000808c73ffffffffffffffffffffffffffffffffffffffff1673ffffffffffffffffffffffffffffffffffffffff168152602001908152602001600020600087815260200190815260200160002081905550816000808b73ffffffffffffffffffffffffffffffffffffffff1673ffffffffffffffffffffffffffffffffffffffff1681526020019081526020016000206000878152602001908152602001600020819055505050505050610f51565b60005b81811015610f4f57828181518110610ecf57610ece6126a8565b5b6020026020010151610efb87868481518110610eee57610eed6126a8565b5b602002602001015161020c565b1015610f3c576040517f08c379a0000000000000000000000000000000000000000000000000000000008152600401610f339061203c565b60405180910390fd5b8080610f47906125a1565b915050610eb4565b505b8373ffffffffffffffffffffffffffffffffffffffff168573ffffffffffffffffffffffffffffffffffffffff163373ffffffffffffffffffffffffffffffffffffffff167f4a39dc06d4c0dbc64b70af90fd698a233a518aa5d07e595d983b8c0526c8f7fb8686604051610fc7929190611f0a565b60405180910390a45050505050565b610ff58573ffffffffffffffffffffffffffffffffffffffff16611530565b1561111c5760008573ffffffffffffffffffffffffffffffffffffffff1663bc197c8184338a8989886040518763ffffffff1660e01b815260040161103e959493929190611e26565b602060405180830381600088803b15801561105857600080fd5b5087f115801561106c573d6000803e3d6000fd5b50505050506040513d601f19601f820116820180604052508101906110919190611afd565b905063bc197c8160e01b7bffffffffffffffffffffffffffffffffffffffffffffffffffffffff1916817bffffffffffffffffffffffffffffffffffffffffffffffffffffffff19161461111a576040517f08c379a000000000000000000000000000000000000000000000000000000000815260040161111190611ffc565b60405180910390fd5b505b505050505050565b6111318483836001611553565b61113e8383836000611553565b8273ffffffffffffffffffffffffffffffffffffffff168473ffffffffffffffffffffffffffffffffffffffff163373ffffffffffffffffffffffffffffffffffffffff167fc3d58168c5ae7397731d063d5bbf3d657854427343f4c083240f7aacaa2d0f6285856040516111b49291906120f7565b60405180910390a450505050565b6111e18573ffffffffffffffffffffffffffffffffffffffff16611530565b156113085760008573ffffffffffffffffffffffffffffffffffffffff1663f23a6e6184338a8989886040518763ffffffff1660e01b815260040161122a959493929190611e8e565b602060405180830381600088803b15801561124457600080fd5b5087f1158015611258573d6000803e3d6000fd5b50505050506040513d601f19601f8201168201806040525081019061127d9190611afd565b905063f23a6e6160e01b7bffffffffffffffffffffffffffffffffffffffffffffffffffffffff1916817bffffffffffffffffffffffffffffffffffffffffffffffffffffffff191614611306576040517f08c379a00000000000000000000000000000000000000000000000000000000081526004016112fd9061205c565b60405180910390fd5b505b505050505050565b600080846020611320919061242c565b90506000600160206001901b6113369190612486565b90506000600181111561134c5761134b612679565b5b84600181111561135f5761135e612679565b5b141561141d578185901b876113749190612234565b9250868310156113b9576040517f08c379a00000000000000000000000000000000000000000000000000000000081526004016113b0906120bc565b60405180910390fd5b602060026113c7919061230e565b8582848a901c166113d89190612234565b10611418576040517f08c379a000000000000000000000000000000000000000000000000000000000815260040161140f906120bc565b60405180910390fd5b611526565b6001808111156114305761142f612679565b5b84600181111561144357611442612679565b5b14156114ea578185901b876114589190612486565b92508683111561149d576040517f08c379a000000000000000000000000000000000000000000000000000000000815260040161149490611f9c565b60405180910390fd5b84818389901c1610156114e5576040517f08c379a00000000000000000000000000000000000000000000000000000000081526004016114dc90611f9c565b60405180910390fd5b611525565b6040517f08c379a000000000000000000000000000000000000000000000000000000000815260040161151c9061209c565b60405180910390fd5b5b5050949350505050565b6000808273ffffffffffffffffffffffffffffffffffffffff163b119050919050565b60008061155f856107eb565b80925081935050506115c26000808873ffffffffffffffffffffffffffffffffffffffff1673ffffffffffffffffffffffffffffffffffffffff168152602001908152602001600020600084815260200190815260200160002054828686611310565b6000808873ffffffffffffffffffffffffffffffffffffffff1673ffffffffffffffffffffffffffffffffffffffff168152602001908152602001600020600084815260200190815260200160002081905550505050505050565b600061163061162b84612145565b612120565b905080838252602082019050828560208602820111156116535761165261270b565b5b60005b858110156116835781611669888261173f565b845260208401935060208301925050600181019050611656565b5050509392505050565b60006116a061169b84612171565b612120565b905080838252602082019050828560208602820111156116c3576116c261270b565b5b60005b858110156116f357816116d9888261181d565b8452602084019350602083019250506001810190506116c6565b5050509392505050565b600061171061170b8461219d565b612120565b90508281526020810184848401111561172c5761172b612710565b5b61173784828561252e565b509392505050565b60008135905061174e81612b89565b92915050565b600082601f83011261176957611768612706565b5b813561177984826020860161161d565b91505092915050565b600082601f83011261179757611796612706565b5b81356117a784826020860161168d565b91505092915050565b6000813590506117bf81612ba0565b92915050565b6000813590506117d481612bb7565b92915050565b6000815190506117e981612bb7565b92915050565b600082601f83011261180457611803612706565b5b81356118148482602086016116fd565b91505092915050565b60008135905061182c81612bce565b92915050565b600080604083850312156118495761184861271a565b5b60006118578582860161173f565b92505060206118688582860161173f565b9150509250929050565b600080600080600060a0868803121561188e5761188d61271a565b5b600061189c8882890161173f565b95505060206118ad8882890161173f565b945050604086013567ffffffffffffffff8111156118ce576118cd612715565b5b6118da88828901611782565b935050606086013567ffffffffffffffff8111156118fb576118fa612715565b5b61190788828901611782565b925050608086013567ffffffffffffffff81111561192857611927612715565b5b611934888289016117ef565b9150509295509295909350565b600080600080600060a0868803121561195d5761195c61271a565b5b600061196b8882890161173f565b955050602061197c8882890161173f565b945050604061198d8882890161181d565b935050606061199e8882890161181d565b925050608086013567ffffffffffffffff8111156119bf576119be612715565b5b6119cb888289016117ef565b9150509295509295909350565b600080604083850312156119ef576119ee61271a565b5b60006119fd8582860161173f565b9250506020611a0e858286016117b0565b9150509250929050565b60008060408385031215611a2f57611a2e61271a565b5b6000611a3d8582860161173f565b9250506020611a4e8582860161181d565b9150509250929050565b60008060408385031215611a6f57611a6e61271a565b5b600083013567ffffffffffffffff811115611a8d57611a8c612715565b5b611a9985828601611754565b925050602083013567ffffffffffffffff811115611aba57611ab9612715565b5b611ac685828601611782565b9150509250929050565b600060208284031215611ae657611ae561271a565b5b6000611af4848285016117c5565b91505092915050565b600060208284031215611b1357611b1261271a565b5b6000611b21848285016117da565b91505092915050565b600060208284031215611b4057611b3f61271a565b5b6000611b4e8482850161181d565b91505092915050565b60008060408385031215611b6e57611b6d61271a565b5b6000611b7c8582860161181d565b9250506020611b8d8582860161181d565b9150509250929050565b6000611ba38383611e08565b60208301905092915050565b611bb8816124ba565b82525050565b6000611bc9826121de565b611bd38185612201565b9350611bde836121ce565b8060005b83811015611c0f578151611bf68882611b97565b9750611c01836121f4565b925050600181019050611be2565b5085935050505092915050565b611c25816124cc565b82525050565b6000611c36826121e9565b611c408185612212565b9350611c5081856020860161253d565b611c598161271f565b840191505092915050565b6000611c71603983612223565b9150611c7c8261273d565b604082019050919050565b6000611c94603d83612223565b9150611c9f8261278c565b604082019050919050565b6000611cb7603383612223565b9150611cc2826127db565b604082019050919050565b6000611cda603783612223565b9150611ce58261282a565b604082019050919050565b6000611cfd604283612223565b9150611d0882612879565b606082019050919050565b6000611d20604c83612223565b9150611d2b826128ee565b606082019050919050565b6000611d43603c83612223565b9150611d4e82612963565b604082019050919050565b6000611d66603683612223565b9150611d71826129b2565b604082019050919050565b6000611d89604783612223565b9150611d9482612a01565b606082019050919050565b6000611dac603883612223565b9150611db782612a76565b604082019050919050565b6000611dcf604583612223565b9150611dda82612ac5565b606082019050919050565b6000611df2603283612223565b9150611dfd82612b3a565b604082019050919050565b611e1181612524565b82525050565b611e2081612524565b82525050565b600060a082019050611e3b6000830188611baf565b611e486020830187611baf565b8181036040830152611e5a8186611bbe565b90508181036060830152611e6e8185611bbe565b90508181036080830152611e828184611c2b565b90509695505050505050565b600060a082019050611ea36000830188611baf565b611eb06020830187611baf565b611ebd6040830186611e17565b611eca6060830185611e17565b8181036080830152611edc8184611c2b565b90509695505050505050565b60006020820190508181036000830152611f028184611bbe565b905092915050565b60006040820190508181036000830152611f248185611bbe565b90508181036020830152611f388184611bbe565b90509392505050565b6000602082019050611f566000830184611c1c565b92915050565b60006020820190508181036000830152611f7581611c64565b9050919050565b60006020820190508181036000830152611f9581611c87565b9050919050565b60006020820190508181036000830152611fb581611caa565b9050919050565b60006020820190508181036000830152611fd581611ccd565b9050919050565b60006020820190508181036000830152611ff581611cf0565b9050919050565b6000602082019050818103600083015261201581611d13565b9050919050565b6000602082019050818103600083015261203581611d36565b9050919050565b6000602082019050818103600083015261205581611d59565b9050919050565b6000602082019050818103600083015261207581611d7c565b9050919050565b6000602082019050818103600083015261209581611d9f565b9050919050565b600060208201905081810360008301526120b581611dc2565b9050919050565b600060208201905081810360008301526120d581611de5565b9050919050565b60006020820190506120f16000830184611e17565b92915050565b600060408201905061210c6000830185611e17565b6121196020830184611e17565b9392505050565b600061212a61213b565b90506121368282612570565b919050565b6000604051905090565b600067ffffffffffffffff8211156121605761215f6126d7565b5b602082029050602081019050919050565b600067ffffffffffffffff82111561218c5761218b6126d7565b5b602082029050602081019050919050565b600067ffffffffffffffff8211156121b8576121b76126d7565b5b6121c18261271f565b9050602081019050919050565b6000819050602082019050919050565b600081519050919050565b600081519050919050565b6000602082019050919050565b600082825260208201905092915050565b600082825260208201905092915050565b600082825260208201905092915050565b600061223f82612524565b915061224a83612524565b9250827fffffffffffffffffffffffffffffffffffffffffffffffffffffffffffffffff0382111561227f5761227e61261b565b5b828201905092915050565b600061229582612524565b91506122a083612524565b9250826122b0576122af61264a565b5b828204905092915050565b6000808291508390505b6001851115612305578086048111156122e1576122e061261b565b5b60018516156122f05780820291505b80810290506122fe85612730565b94506122c5565b94509492505050565b600061231982612524565b915061232483612524565b92506123517fffffffffffffffffffffffffffffffffffffffffffffffffffffffffffffffff8484612359565b905092915050565b6000826123695760019050612425565b816123775760009050612425565b816001811461238d5760028114612397576123c6565b6001915050612425565b60ff8411156123a9576123a861261b565b5b8360020a9150848211156123c0576123bf61261b565b5b50612425565b5060208310610133831016604e8410600b84101617156123fb5782820a9050838111156123f6576123f561261b565b5b612425565b61240884848460016122bb565b9250905081840481111561241f5761241e61261b565b5b81810290505b9392505050565b600061243782612524565b915061244283612524565b9250817fffffffffffffffffffffffffffffffffffffffffffffffffffffffffffffffff048311821515161561247b5761247a61261b565b5b828202905092915050565b600061249182612524565b915061249c83612524565b9250828210156124af576124ae61261b565b5b828203905092915050565b60006124c582612504565b9050919050565b60008115159050919050565b60007fffffffff0000000000000000000000000000000000000000000000000000000082169050919050565b600073ffffffffffffffffffffffffffffffffffffffff82169050919050565b6000819050919050565b82818337600083830152505050565b60005b8381101561255b578082015181840152602081019050612540565b8381111561256a576000848401525b50505050565b6125798261271f565b810181811067ffffffffffffffff82111715612598576125976126d7565b5b80604052505050565b60006125ac82612524565b91507fffffffffffffffffffffffffffffffffffffffffffffffffffffffffffffffff8214156125df576125de61261b565b5b600182019050919050565b60006125f582612524565b915061260083612524565b9250826126105761260f61264a565b5b828206905092915050565b7f4e487b7100000000000000000000000000000000000000000000000000000000600052601160045260246000fd5b7f4e487b7100000000000000000000000000000000000000000000000000000000600052601260045260246000fd5b7f4e487b7100000000000000000000000000000000000000000000000000000000600052602160045260246000fd5b7f4e487b7100000000000000000000000000000000000000000000000000000000600052603260045260246000fd5b7f4e487b7100000000000000000000000000000000000000000000000000000000600052604160045260246000fd5b600080fd5b600080fd5b600080fd5b600080fd5b600080fd5b6000601f19601f8301169050919050565b60008160011c9050919050565b7f455243313135355061636b656442616c616e63652362616c616e63654f66426160008201527f7463683a20494e56414c49445f41525241595f4c454e47544800000000000000602082015250565b7f455243313135355061636b656442616c616e636523736166654261746368547260008201527f616e7366657246726f6d3a20494e56414c49445f524543495049454e54000000602082015250565b7f455243313135355061636b656442616c616e6365235f7669657755706461746560008201527f42696e56616c75653a20554e444552464c4f5700000000000000000000000000602082015250565b7f455243313135355061636b656442616c616e636523736166655472616e73666560008201527f7246726f6d3a20494e56414c49445f4f50455241544f52000000000000000000602082015250565b7f455243313135355061636b656442616c616e6365235f7361666542617463685460008201527f72616e7366657246726f6d3a20494e56414c49445f4152524159535f4c454e4760208201527f5448000000000000000000000000000000000000000000000000000000000000604082015250565b7f455243313135355061636b656442616c616e6365235f63616c6c6f6e4552433160008201527f313535426174636852656365697665643a20494e56414c49445f4f4e5f52454360208201527f454956455f4d4553534147450000000000000000000000000000000000000000604082015250565b7f455243313135355061636b656442616c616e636523736166654261746368547260008201527f616e7366657246726f6d3a20494e56414c49445f4f50455241544f5200000000602082015250565b7f455243313135355061636b656442616c616e6365235f7361666542617463685460008201527f72616e7366657246726f6d3a20554e444552464c4f5700000000000000000000602082015250565b7f455243313135355061636b656442616c616e6365235f63616c6c6f6e4552433160008201527f31353552656365697665643a20494e56414c49445f4f4e5f524543454956455f60208201527f4d45535341474500000000000000000000000000000000000000000000000000604082015250565b7f455243313135355061636b656442616c616e636523736166655472616e73666560008201527f7246726f6d3a20494e56414c49445f524543495049454e540000000000000000602082015250565b7f455243313135355061636b656442616c616e6365235f7669657755706461746560008201527f42696e56616c75653a20494e56414c49445f42494e5f57524954455f4f50455260208201527f4154494f4e000000000000000000000000000000000000000000000000000000604082015250565b7f455243313135355061636b656442616c616e6365235f7669657755706461746560008201527f42696e56616c75653a204f564552464c4f570000000000000000000000000000602082015250565b612b92816124ba565b8114612b9d57600080fd5b50565b612ba9816124cc565b8114612bb457600080fd5b50565b612bc0816124d8565b8114612bcb57600080fd5b50565b612bd781612524565b8114612be257600080fd5b5056fea26469706673582212206471fab3d5c2be70e4feb457f309039dc751b40d1991fe3ab63af7297b0ed02d64736f6c63430008070033",
  "linkReferences": {},
  "deployedLinkReferences": {}
}